{
  "contractName": "TicketManagement",
  "abi": [
    {
      "inputs": [],
      "stateMutability": "nonpayable",
      "type": "constructor"
    },
    {
      "anonymous": false,
      "inputs": [
        {
          "indexed": true,
          "internalType": "address",
          "name": "owner",
          "type": "address"
        },
        {
          "indexed": true,
          "internalType": "address",
          "name": "approved",
          "type": "address"
        },
        {
          "indexed": true,
          "internalType": "uint256",
          "name": "tokenId",
          "type": "uint256"
        }
      ],
      "name": "Approval",
      "type": "event"
    },
    {
      "anonymous": false,
      "inputs": [
        {
          "indexed": true,
          "internalType": "address",
          "name": "owner",
          "type": "address"
        },
        {
          "indexed": true,
          "internalType": "address",
          "name": "operator",
          "type": "address"
        },
        {
          "indexed": false,
          "internalType": "bool",
          "name": "approved",
          "type": "bool"
        }
      ],
      "name": "ApprovalForAll",
      "type": "event"
    },
    {
      "anonymous": false,
      "inputs": [
        {
          "indexed": false,
          "internalType": "address",
          "name": "ownerAddress",
          "type": "address"
        },
        {
          "indexed": false,
          "internalType": "uint256",
          "name": "amount",
          "type": "uint256"
        }
      ],
      "name": "Payment",
      "type": "event"
    },
    {
      "anonymous": false,
      "inputs": [
        {
          "indexed": false,
          "internalType": "address",
          "name": "owner",
          "type": "address"
        },
        {
          "indexed": false,
          "internalType": "uint256",
          "name": "tokenId",
          "type": "uint256"
        },
        {
          "indexed": false,
          "internalType": "string",
          "name": "typeOfTicket",
          "type": "string"
        }
      ],
      "name": "TicketMinted",
      "type": "event"
    },
    {
      "anonymous": false,
      "inputs": [
        {
          "indexed": true,
          "internalType": "address",
          "name": "from",
          "type": "address"
        },
        {
          "indexed": true,
          "internalType": "address",
          "name": "to",
          "type": "address"
        },
        {
          "indexed": true,
          "internalType": "uint256",
          "name": "tokenId",
          "type": "uint256"
        }
      ],
      "name": "Transfer",
      "type": "event"
    },
    {
      "inputs": [],
      "name": "_tokenIdCounter",
      "outputs": [
        {
          "internalType": "uint256",
          "name": "",
          "type": "uint256"
        }
      ],
      "stateMutability": "view",
      "type": "function",
      "constant": true
    },
    {
      "inputs": [
        {
          "internalType": "address",
          "name": "to",
          "type": "address"
        },
        {
          "internalType": "uint256",
          "name": "tokenId",
          "type": "uint256"
        }
      ],
      "name": "approve",
      "outputs": [],
      "stateMutability": "nonpayable",
      "type": "function"
    },
    {
      "inputs": [
        {
          "internalType": "address",
          "name": "owner",
          "type": "address"
        }
      ],
      "name": "balanceOf",
      "outputs": [
        {
          "internalType": "uint256",
          "name": "",
          "type": "uint256"
        }
      ],
      "stateMutability": "view",
      "type": "function",
      "constant": true
    },
    {
      "inputs": [],
      "name": "concertManager",
      "outputs": [
        {
          "internalType": "address",
          "name": "",
          "type": "address"
        }
      ],
      "stateMutability": "view",
      "type": "function",
      "constant": true
    },
    {
      "inputs": [
        {
          "internalType": "uint256",
          "name": "tokenId",
          "type": "uint256"
        }
      ],
      "name": "getApproved",
      "outputs": [
        {
          "internalType": "address",
          "name": "",
          "type": "address"
        }
      ],
      "stateMutability": "view",
      "type": "function",
      "constant": true
    },
    {
      "inputs": [
        {
          "internalType": "address",
          "name": "owner",
          "type": "address"
        },
        {
          "internalType": "address",
          "name": "operator",
          "type": "address"
        }
      ],
      "name": "isApprovedForAll",
      "outputs": [
        {
          "internalType": "bool",
          "name": "",
          "type": "bool"
        }
      ],
      "stateMutability": "view",
      "type": "function",
      "constant": true
    },
    {
      "inputs": [],
      "name": "name",
      "outputs": [
        {
          "internalType": "string",
          "name": "",
          "type": "string"
        }
      ],
      "stateMutability": "view",
      "type": "function",
      "constant": true
    },
    {
      "inputs": [],
      "name": "numberOfTransactions",
      "outputs": [
        {
          "internalType": "uint256",
          "name": "",
          "type": "uint256"
        }
      ],
      "stateMutability": "view",
      "type": "function",
      "constant": true
    },
    {
      "inputs": [
        {
          "internalType": "uint256",
          "name": "tokenId",
          "type": "uint256"
        }
      ],
      "name": "ownerOf",
      "outputs": [
        {
          "internalType": "address",
          "name": "",
          "type": "address"
        }
      ],
      "stateMutability": "view",
      "type": "function",
      "constant": true
    },
    {
      "inputs": [],
      "name": "premiumTicketPrice",
      "outputs": [
        {
          "internalType": "uint256",
          "name": "",
          "type": "uint256"
        }
      ],
      "stateMutability": "view",
      "type": "function",
      "constant": true
    },
    {
      "inputs": [
        {
          "internalType": "address",
          "name": "from",
          "type": "address"
        },
        {
          "internalType": "address",
          "name": "to",
          "type": "address"
        },
        {
          "internalType": "uint256",
          "name": "tokenId",
          "type": "uint256"
        }
      ],
      "name": "safeTransferFrom",
      "outputs": [],
      "stateMutability": "nonpayable",
      "type": "function"
    },
    {
      "inputs": [
        {
          "internalType": "address",
          "name": "from",
          "type": "address"
        },
        {
          "internalType": "address",
          "name": "to",
          "type": "address"
        },
        {
          "internalType": "uint256",
          "name": "tokenId",
          "type": "uint256"
        },
        {
          "internalType": "bytes",
          "name": "_data",
          "type": "bytes"
        }
      ],
      "name": "safeTransferFrom",
      "outputs": [],
      "stateMutability": "nonpayable",
      "type": "function"
    },
    {
      "inputs": [
        {
          "internalType": "address",
          "name": "operator",
          "type": "address"
        },
        {
          "internalType": "bool",
          "name": "approved",
          "type": "bool"
        }
      ],
      "name": "setApprovalForAll",
      "outputs": [],
      "stateMutability": "nonpayable",
      "type": "function"
    },
    {
      "inputs": [],
      "name": "standardTicketPrice",
      "outputs": [
        {
          "internalType": "uint256",
          "name": "",
          "type": "uint256"
        }
      ],
      "stateMutability": "view",
      "type": "function",
      "constant": true
    },
    {
      "inputs": [
        {
          "internalType": "bytes4",
          "name": "interfaceId",
          "type": "bytes4"
        }
      ],
      "name": "supportsInterface",
      "outputs": [
        {
          "internalType": "bool",
          "name": "",
          "type": "bool"
        }
      ],
      "stateMutability": "view",
      "type": "function",
      "constant": true
    },
    {
      "inputs": [],
      "name": "symbol",
      "outputs": [
        {
          "internalType": "string",
          "name": "",
          "type": "string"
        }
      ],
      "stateMutability": "view",
      "type": "function",
      "constant": true
    },
    {
      "inputs": [
        {
          "internalType": "uint256",
          "name": "",
          "type": "uint256"
        }
      ],
      "name": "tickets",
      "outputs": [
        {
          "internalType": "address",
          "name": "owner",
          "type": "address"
        },
        {
          "internalType": "uint256",
          "name": "amount",
          "type": "uint256"
        },
        {
          "internalType": "string",
          "name": "typeOfTicket",
          "type": "string"
        },
        {
          "internalType": "uint256",
          "name": "time",
          "type": "uint256"
        },
        {
          "internalType": "string",
          "name": "imgUrl",
          "type": "string"
        }
      ],
      "stateMutability": "view",
      "type": "function",
      "constant": true
    },
    {
      "inputs": [
        {
          "internalType": "uint256",
          "name": "tokenId",
          "type": "uint256"
        }
      ],
      "name": "tokenURI",
      "outputs": [
        {
          "internalType": "string",
          "name": "",
          "type": "string"
        }
      ],
      "stateMutability": "view",
      "type": "function",
      "constant": true
    },
    {
      "inputs": [
        {
          "internalType": "uint256",
          "name": "",
          "type": "uint256"
        }
      ],
      "name": "transactions",
      "outputs": [
        {
          "internalType": "address",
          "name": "to",
          "type": "address"
        },
        {
          "internalType": "address",
          "name": "from",
          "type": "address"
        },
        {
          "internalType": "uint256",
          "name": "amount",
          "type": "uint256"
        },
        {
          "internalType": "uint256",
          "name": "timestamp",
          "type": "uint256"
        },
        {
          "internalType": "string",
          "name": "ticketType",
          "type": "string"
        }
      ],
      "stateMutability": "view",
      "type": "function",
      "constant": true
    },
    {
      "inputs": [
        {
          "internalType": "address",
          "name": "from",
          "type": "address"
        },
        {
          "internalType": "address",
          "name": "to",
          "type": "address"
        },
        {
          "internalType": "uint256",
          "name": "tokenId",
          "type": "uint256"
        }
      ],
      "name": "transferFrom",
      "outputs": [],
      "stateMutability": "nonpayable",
      "type": "function"
    },
    {
      "inputs": [
        {
          "internalType": "uint256",
          "name": "_standardTicketCount",
          "type": "uint256"
        },
        {
          "internalType": "uint256",
          "name": "_premiumTicketCount",
          "type": "uint256"
        }
      ],
      "name": "setTicketCount",
      "outputs": [],
      "stateMutability": "nonpayable",
      "type": "function"
    },
    {
      "inputs": [
        {
          "internalType": "uint256",
          "name": "_standardTicketPrice",
          "type": "uint256"
        },
        {
          "internalType": "uint256",
          "name": "_premiumTicketPrice",
          "type": "uint256"
        }
      ],
      "name": "setTicketPrice",
      "outputs": [],
      "stateMutability": "nonpayable",
      "type": "function"
    },
    {
      "inputs": [
        {
          "internalType": "address",
          "name": "_owner",
          "type": "address"
        },
        {
          "internalType": "uint256",
          "name": "_amount",
          "type": "uint256"
        },
        {
          "internalType": "string",
          "name": "_typeOfTicket",
          "type": "string"
        },
        {
          "internalType": "string",
          "name": "_imgUrl",
          "type": "string"
        }
      ],
      "name": "addTicketOwner",
      "outputs": [
        {
          "internalType": "uint256",
          "name": "",
          "type": "uint256"
        }
      ],
      "stateMutability": "payable",
      "type": "function",
      "payable": true
    },
    {
      "inputs": [],
      "name": "getAllTransactions",
      "outputs": [
        {
          "components": [
            {
              "internalType": "address",
              "name": "to",
              "type": "address"
            },
            {
              "internalType": "address",
              "name": "from",
              "type": "address"
            },
            {
              "internalType": "uint256",
              "name": "amount",
              "type": "uint256"
            },
            {
              "internalType": "uint256",
              "name": "timestamp",
              "type": "uint256"
            },
            {
              "internalType": "string",
              "name": "ticketType",
              "type": "string"
            }
          ],
          "internalType": "struct TicketManagement.Transaction[]",
          "name": "",
          "type": "tuple[]"
        }
      ],
      "stateMutability": "view",
      "type": "function",
      "constant": true
    },
    {
      "inputs": [
        {
          "internalType": "uint256",
          "name": "tokenId",
          "type": "uint256"
        }
      ],
      "name": "getTicketInfo",
      "outputs": [
        {
          "components": [
            {
              "internalType": "address",
              "name": "owner",
              "type": "address"
            },
            {
              "internalType": "uint256",
              "name": "amount",
              "type": "uint256"
            },
            {
              "internalType": "string",
              "name": "typeOfTicket",
              "type": "string"
            },
            {
              "internalType": "uint256",
              "name": "time",
              "type": "uint256"
            },
            {
              "internalType": "string",
              "name": "imgUrl",
              "type": "string"
            }
          ],
          "internalType": "struct TicketManagement.Tickets",
          "name": "",
          "type": "tuple"
        }
      ],
      "stateMutability": "view",
      "type": "function",
      "constant": true
    }
  ],
  "bytecode": "0x60806040526000600a556000600b556000600e553480156200002057600080fd5b506040805180820182526009815268139195151a58dad95d60ba1b602080830191825283518085019094526006845265151250d2d15560d21b9084015281519192916200007091600091620000a6565b50805162000086906001906020840190620000a6565b5050600f80546001600160a01b0319163317905550600060075562000189565b828054620000b4906200014c565b90600052602060002090601f016020900481019282620000d8576000855562000123565b82601f10620000f357805160ff191683800117855562000123565b8280016001018555821562000123579182015b828111156200012357825182559160200191906001019062000106565b506200013192915062000135565b5090565b5b8082111562000131576000815560010162000136565b600181811c908216806200016157607f821691505b602082108114156200018357634e487b7160e01b600052602260045260246000fd5b50919050565b6123f180620001996000396000f3fe6080604052600436106101665760003560e01c806374ed48e6116100d1578063abba8e6b1161008a578063e780ae4011610064578063e780ae4014610438578063e985e9c514610458578063f8d3afa4146104a1578063ff99a063146104b757600080fd5b8063abba8e6b146103e2578063b88d4fde146103f8578063c87b56dd1461041857600080fd5b806374ed48e61461033057806384c4bd4b1461034657806395d89b411461035c5780639ace38c214610371578063a22cb465146103a2578063aa4c4cc1146103c257600080fd5b80632b35677c116101235780632b35677c1461025e57806342842e0e1461027e57806350b447121461029e57806354157ce5146102cf5780636352211e146102f057806370a082311461031057600080fd5b806301ffc9a71461016b57806306fdde03146101a0578063081812fc146101c2578063095ea7b3146101fa57806323b872dd1461021c57806327506f531461023c575b600080fd5b34801561017757600080fd5b5061018b610186366004611c2c565b6104e4565b60405190151581526020015b60405180910390f35b3480156101ac57600080fd5b506101b5610536565b6040516101979190611ca1565b3480156101ce57600080fd5b506101e26101dd366004611cb4565b6105c8565b6040516001600160a01b039091168152602001610197565b34801561020657600080fd5b5061021a610215366004611ce9565b610655565b005b34801561022857600080fd5b5061021a610237366004611d13565b61076b565b34801561024857600080fd5b5061025161079c565b6040516101979190611d4f565b34801561026a57600080fd5b5061021a610279366004611df0565b61095b565b34801561028a57600080fd5b5061021a610299366004611d13565b610990565b3480156102aa57600080fd5b506102be6102b9366004611cb4565b6109ab565b604051610197959493929190611e12565b6102e26102dd366004611f09565b610af4565b604051908152602001610197565b3480156102fc57600080fd5b506101e261030b366004611cb4565b610dac565b34801561031c57600080fd5b506102e261032b366004611f87565b610e23565b34801561033c57600080fd5b506102e2600a5481565b34801561035257600080fd5b506102e260075481565b34801561036857600080fd5b506101b5610eaa565b34801561037d57600080fd5b5061039161038c366004611cb4565b610eb9565b604051610197959493929190611fa2565b3480156103ae57600080fd5b5061021a6103bd366004611fe7565b610efc565b3480156103ce57600080fd5b5061021a6103dd366004611df0565b610fc1565b3480156103ee57600080fd5b506102e2600b5481565b34801561040457600080fd5b5061021a610413366004612023565b610ff6565b34801561042457600080fd5b506101b5610433366004611cb4565b61102e565b34801561044457600080fd5b50600f546101e2906001600160a01b031681565b34801561046457600080fd5b5061018b610473366004612093565b6001600160a01b03918216600090815260056020908152604080832093909416825291909152205460ff1690565b3480156104ad57600080fd5b506102e2600e5481565b3480156104c357600080fd5b506104d76104d2366004611cb4565b61119d565b60405161019791906120c6565b60006001600160e01b031982166380ac58cd60e01b148061051557506001600160e01b03198216635b5e139f60e01b145b8061053057506301ffc9a760e01b6001600160e01b03198316145b92915050565b6060600080546105459061212e565b80601f01602080910402602001604051908101604052809291908181526020018280546105719061212e565b80156105be5780601f10610593576101008083540402835291602001916105be565b820191906000526020600020905b8154815290600101906020018083116105a157829003601f168201915b5050505050905090565b60006105d382611347565b6106395760405162461bcd60e51b815260206004820152602c60248201527f4552433732313a20617070726f76656420717565727920666f72206e6f6e657860448201526b34b9ba32b73a103a37b5b2b760a11b60648201526084015b60405180910390fd5b506000908152600460205260409020546001600160a01b031690565b600061066082610dac565b9050806001600160a01b0316836001600160a01b031614156106ce5760405162461bcd60e51b815260206004820152602160248201527f4552433732313a20617070726f76616c20746f2063757272656e74206f776e656044820152603960f91b6064820152608401610630565b336001600160a01b03821614806106ea57506106ea8133610473565b61075c5760405162461bcd60e51b815260206004820152603860248201527f4552433732313a20617070726f76652063616c6c6572206973206e6f74206f7760448201527f6e6572206e6f7220617070726f76656420666f7220616c6c00000000000000006064820152608401610630565b6107668383611364565b505050565b61077533826113d2565b6107915760405162461bcd60e51b815260040161063090612163565b6107668383836114b8565b60606000600e5467ffffffffffffffff8111156107bb576107bb611e5d565b60405190808252806020026020018201604052801561083057816020015b61081d6040518060a0016040528060006001600160a01b0316815260200160006001600160a01b031681526020016000815260200160008152602001606081525090565b8152602001906001900390816107d95790505b50905060005b600e5481101561095557600081815260096020908152604091829020825160a08101845281546001600160a01b0390811682526001830154169281019290925260028101549282019290925260038201546060820152600482018054839160808401916108a29061212e565b80601f01602080910402602001604051908101604052809291908181526020018280546108ce9061212e565b801561091b5780601f106108f05761010080835404028352916020019161091b565b820191906000526020600020905b8154815290600101906020018083116108fe57829003601f168201915b505050505081525050838381518110610936576109366121b4565b602002602001018190525050808061094d906121e0565b915050610836565b50919050565b600f546001600160a01b031633146109855760405162461bcd60e51b8152600401610630906121fb565b600c91909155600d55565b61076683838360405180602001604052806000815250610ff6565b6008602052600090815260409020805460018201546002830180546001600160a01b039093169391926109dd9061212e565b80601f0160208091040260200160405190810160405280929190818152602001828054610a099061212e565b8015610a565780601f10610a2b57610100808354040283529160200191610a56565b820191906000526020600020905b815481529060010190602001808311610a3957829003601f168201915b505050505090806003015490806004018054610a719061212e565b80601f0160208091040260200160405190810160405280929190818152602001828054610a9d9061212e565b8015610aea5780601f10610abf57610100808354040283529160200191610aea565b820191906000526020600020905b815481529060010190602001808311610acd57829003601f168201915b5050505050905085565b6000833414610b455760405162461bcd60e51b815260206004820152601c60248201527f496e636f727265637420457468657220616d6f756e742073656e742e000000006044820152606401610630565b600f5460405133916000916001600160a01b039091169087908381818185875af1925050503d8060008114610b96576040519150601f19603f3d011682016040523d82523d6000602084013e610b9b565b606091505b5050905080610bdf5760405162461bcd60e51b815260206004820152601060248201526f2a3930b739b332b9103330b4b632b21760811b6044820152606401610630565b600780549081906000610bf1836121e0565b9190505550610c008882611658565b6000818152600960209081526040909120600f5481546001600160a01b039182166001600160a01b03199182161783556001830180549091169187169190911790556002810189905542600382015587519091610c649160048401918a0190611b7a565b50600e8054906000610c75836121e0565b9091555050604080516001600160a01b038b168152602081018a90527fd4f43975feb89f48dd30cabbb32011045be187d1e11c8ea9faa43efc35282519910160405180910390a16040805160a0810182526001600160a01b038b8116825260208083018c81528385018c8152426060860152608085018c905260008881526008845295909520845181546001600160a01b03191694169390931783555160018301559251805192939192610d2f9260028501920190611b7a565b506060820151600382015560808201518051610d55916004840191602090910190611b7a565b50905050610d638287611676565b7ff16f1e8b680ea7f1e8a1f849eb82762cba60ddcef854d36909e3173483281c8c898389604051610d969392919061224c565b60405180910390a150925050505b949350505050565b6000818152600260205260408120546001600160a01b0316806105305760405162461bcd60e51b815260206004820152602960248201527f4552433732313a206f776e657220717565727920666f72206e6f6e657869737460448201526832b73a103a37b5b2b760b91b6064820152608401610630565b60006001600160a01b038216610e8e5760405162461bcd60e51b815260206004820152602a60248201527f4552433732313a2062616c616e636520717565727920666f7220746865207a65604482015269726f206164647265737360b01b6064820152608401610630565b506001600160a01b031660009081526003602052604090205490565b6060600180546105459061212e565b600960205260009081526040902080546001820154600283015460038401546004850180546001600160a01b0395861696949095169492939192610a719061212e565b6001600160a01b038216331415610f555760405162461bcd60e51b815260206004820152601960248201527f4552433732313a20617070726f766520746f2063616c6c6572000000000000006044820152606401610630565b3360008181526005602090815260408083206001600160a01b03871680855290835292819020805460ff191686151590811790915590519081529192917f17307eab39ab6107e8899845ad3d59bd9653f200f220920489ca2b5937696c31910160405180910390a35050565b600f546001600160a01b03163314610feb5760405162461bcd60e51b8152600401610630906121fb565b600a91909155600b55565b61100033836113d2565b61101c5760405162461bcd60e51b815260040161063090612163565b61102884848484611701565b50505050565b606061103982611347565b61109f5760405162461bcd60e51b815260206004820152603160248201527f45524337323155524953746f726167653a2055524920717565727920666f72206044820152703737b732bc34b9ba32b73a103a37b5b2b760791b6064820152608401610630565b600082815260066020526040812080546110b89061212e565b80601f01602080910402602001604051908101604052809291908181526020018280546110e49061212e565b80156111315780601f1061110657610100808354040283529160200191611131565b820191906000526020600020905b81548152906001019060200180831161111457829003601f168201915b50505050509050600061114f60408051602081019091526000815290565b9050805160001415611162575092915050565b81511561119457808260405160200161117c929190612273565b60405160208183030381529060405292505050919050565b610da484611734565b6111d86040518060a0016040528060006001600160a01b03168152602001600081526020016060815260200160008152602001606081525090565b600082815260086020908152604091829020825160a08101845281546001600160a01b0316815260018201549281019290925260028101805492939192918401916112229061212e565b80601f016020809104026020016040519081016040528092919081815260200182805461124e9061212e565b801561129b5780601f106112705761010080835404028352916020019161129b565b820191906000526020600020905b81548152906001019060200180831161127e57829003601f168201915b50505050508152602001600382015481526020016004820180546112be9061212e565b80601f01602080910402602001604051908101604052809291908181526020018280546112ea9061212e565b80156113375780601f1061130c57610100808354040283529160200191611337565b820191906000526020600020905b81548152906001019060200180831161131a57829003601f168201915b5050505050815250509050919050565b6000908152600260205260409020546001600160a01b0316151590565b600081815260046020526040902080546001600160a01b0319166001600160a01b038416908117909155819061139982610dac565b6001600160a01b03167f8c5be1e5ebec7d5bd14f71427d1e84f3dd0314c0f7b2291e5b200ac8c7c3b92560405160405180910390a45050565b60006113dd82611347565b61143e5760405162461bcd60e51b815260206004820152602c60248201527f4552433732313a206f70657261746f7220717565727920666f72206e6f6e657860448201526b34b9ba32b73a103a37b5b2b760a11b6064820152608401610630565b600061144983610dac565b9050806001600160a01b0316846001600160a01b031614806114845750836001600160a01b0316611479846105c8565b6001600160a01b0316145b80610da457506001600160a01b0380821660009081526005602090815260408083209388168352929052205460ff16610da4565b826001600160a01b03166114cb82610dac565b6001600160a01b0316146115335760405162461bcd60e51b815260206004820152602960248201527f4552433732313a207472616e73666572206f6620746f6b656e2074686174206960448201526839903737ba1037bbb760b91b6064820152608401610630565b6001600160a01b0382166115955760405162461bcd60e51b8152602060048201526024808201527f4552433732313a207472616e7366657220746f20746865207a65726f206164646044820152637265737360e01b6064820152608401610630565b6115a0600082611364565b6001600160a01b03831660009081526003602052604081208054600192906115c99084906122a2565b90915550506001600160a01b03821660009081526003602052604081208054600192906115f79084906122b9565b909155505060008181526002602052604080822080546001600160a01b0319166001600160a01b0386811691821790925591518493918716917fddf252ad1be2c89b69c2b068fc378daa952ba7f163c4a11628f55a4df523b3ef91a4505050565b61167282826040518060200160405280600081525061180c565b5050565b61167f82611347565b6116e25760405162461bcd60e51b815260206004820152602e60248201527f45524337323155524953746f726167653a2055524920736574206f66206e6f6e60448201526d32bc34b9ba32b73a103a37b5b2b760911b6064820152608401610630565b6000828152600660209081526040909120825161076692840190611b7a565b61170c8484846114b8565b6117188484848461183f565b6110285760405162461bcd60e51b8152600401610630906122d1565b606061173f82611347565b6117a35760405162461bcd60e51b815260206004820152602f60248201527f4552433732314d657461646174613a2055524920717565727920666f72206e6f60448201526e3732bc34b9ba32b73a103a37b5b2b760891b6064820152608401610630565b60006117ba60408051602081019091526000815290565b905060008151116117da5760405180602001604052806000815250611805565b806117e484611949565b6040516020016117f5929190612273565b6040516020818303038152906040525b9392505050565b6118168383611a47565b611823600084848461183f565b6107665760405162461bcd60e51b8152600401610630906122d1565b60006001600160a01b0384163b1561194157604051630a85bd0160e11b81526001600160a01b0385169063150b7a0290611883903390899088908890600401612323565b602060405180830381600087803b15801561189d57600080fd5b505af19250505080156118cd575060408051601f3d908101601f191682019092526118ca91810190612360565b60015b611927573d8080156118fb576040519150601f19603f3d011682016040523d82523d6000602084013e611900565b606091505b50805161191f5760405162461bcd60e51b8152600401610630906122d1565b805181602001fd5b6001600160e01b031916630a85bd0160e11b149050610da4565b506001610da4565b60608161196d5750506040805180820190915260018152600360fc1b602082015290565b8160005b81156119975780611981816121e0565b91506119909050600a83612393565b9150611971565b60008167ffffffffffffffff8111156119b2576119b2611e5d565b6040519080825280601f01601f1916602001820160405280156119dc576020820181803683370190505b5090505b8415610da4576119f16001836122a2565b91506119fe600a866123a7565b611a099060306122b9565b60f81b818381518110611a1e57611a1e6121b4565b60200101906001600160f81b031916908160001a905350611a40600a86612393565b94506119e0565b6001600160a01b038216611a9d5760405162461bcd60e51b815260206004820181905260248201527f4552433732313a206d696e7420746f20746865207a65726f20616464726573736044820152606401610630565b611aa681611347565b15611af35760405162461bcd60e51b815260206004820152601c60248201527f4552433732313a20746f6b656e20616c7265616479206d696e746564000000006044820152606401610630565b6001600160a01b0382166000908152600360205260408120805460019290611b1c9084906122b9565b909155505060008181526002602052604080822080546001600160a01b0319166001600160a01b03861690811790915590518392907fddf252ad1be2c89b69c2b068fc378daa952ba7f163c4a11628f55a4df523b3ef908290a45050565b828054611b869061212e565b90600052602060002090601f016020900481019282611ba85760008555611bee565b82601f10611bc157805160ff1916838001178555611bee565b82800160010185558215611bee579182015b82811115611bee578251825591602001919060010190611bd3565b50611bfa929150611bfe565b5090565b5b80821115611bfa5760008155600101611bff565b6001600160e01b031981168114611c2957600080fd5b50565b600060208284031215611c3e57600080fd5b813561180581611c13565b60005b83811015611c64578181015183820152602001611c4c565b838111156110285750506000910152565b60008151808452611c8d816020860160208601611c49565b601f01601f19169290920160200192915050565b6020815260006118056020830184611c75565b600060208284031215611cc657600080fd5b5035919050565b80356001600160a01b0381168114611ce457600080fd5b919050565b60008060408385031215611cfc57600080fd5b611d0583611ccd565b946020939093013593505050565b600080600060608486031215611d2857600080fd5b611d3184611ccd565b9250611d3f60208501611ccd565b9150604084013590509250925092565b60006020808301818452808551808352604092508286019150828160051b87010184880160005b83811015611de257888303603f19018552815180516001600160a01b03908116855288820151168885015286810151878501526060808201519085015260809081015160a091850182905290611dce81860183611c75565b968901969450505090860190600101611d76565b509098975050505050505050565b60008060408385031215611e0357600080fd5b50508035926020909101359150565b60018060a01b038616815284602082015260a060408201526000611e3960a0830186611c75565b8460608401528281036080840152611e518185611c75565b98975050505050505050565b634e487b7160e01b600052604160045260246000fd5b600067ffffffffffffffff80841115611e8e57611e8e611e5d565b604051601f8501601f19908116603f01168101908282118183101715611eb657611eb6611e5d565b81604052809350858152868686011115611ecf57600080fd5b858560208301376000602087830101525050509392505050565b600082601f830112611efa57600080fd5b61180583833560208501611e73565b60008060008060808587031215611f1f57600080fd5b611f2885611ccd565b935060208501359250604085013567ffffffffffffffff80821115611f4c57600080fd5b611f5888838901611ee9565b93506060870135915080821115611f6e57600080fd5b50611f7b87828801611ee9565b91505092959194509250565b600060208284031215611f9957600080fd5b61180582611ccd565b6001600160a01b03868116825285166020820152604081018490526060810183905260a060808201819052600090611fdc90830184611c75565b979650505050505050565b60008060408385031215611ffa57600080fd5b61200383611ccd565b91506020830135801515811461201857600080fd5b809150509250929050565b6000806000806080858703121561203957600080fd5b61204285611ccd565b935061205060208601611ccd565b925060408501359150606085013567ffffffffffffffff81111561207357600080fd5b8501601f8101871361208457600080fd5b611f7b87823560208401611e73565b600080604083850312156120a657600080fd5b6120af83611ccd565b91506120bd60208401611ccd565b90509250929050565b6020815260018060a01b038251166020820152602082015160408201526000604083015160a060608401526120fe60c0840182611c75565b9050606084015160808401526080840151601f198483030160a08501526121258282611c75565b95945050505050565b600181811c9082168061214257607f821691505b6020821081141561095557634e487b7160e01b600052602260045260246000fd5b60208082526031908201527f4552433732313a207472616e736665722063616c6c6572206973206e6f74206f6040820152701ddb995c881b9bdc88185c1c1c9bdd9959607a1b606082015260800190565b634e487b7160e01b600052603260045260246000fd5b634e487b7160e01b600052601160045260246000fd5b60006000198214156121f4576121f46121ca565b5060010190565b60208082526031908201527f4f6e6c792074686520636f6e63657274206d616e616765722063616e207065726040820152703337b936903a3434b99030b1ba34b7b71760791b606082015260800190565b60018060a01b03841681528260208201526060604082015260006121256060830184611c75565b60008351612285818460208801611c49565b835190830190612299818360208801611c49565b01949350505050565b6000828210156122b4576122b46121ca565b500390565b600082198211156122cc576122cc6121ca565b500190565b60208082526032908201527f4552433732313a207472616e7366657220746f206e6f6e20455243373231526560408201527131b2b4bb32b91034b6b83632b6b2b73a32b960711b606082015260800190565b6001600160a01b038581168252841660208201526040810183905260806060820181905260009061235690830184611c75565b9695505050505050565b60006020828403121561237257600080fd5b815161180581611c13565b634e487b7160e01b600052601260045260246000fd5b6000826123a2576123a261237d565b500490565b6000826123b6576123b661237d565b50069056fea264697066735822122001a0aa56615f5fe80edca10efde9bd5faae535e7fd2413272f499946c212834764736f6c63430008090033",
  "immutableReferences": {},
  "source": "// SPDX-License-Identifier: MIT\r\npragma solidity ^0.8.9;\r\n\r\n// Import OpenZeppelin's ERC721 standard\r\nimport \"@openzeppelin/contracts/utils/Counters.sol\";\r\nimport \"@openzeppelin/contracts/token/ERC721/extensions/ERC721URIStorage.sol\";\r\n\r\ncontract TicketManagement is ERC721URIStorage {\r\n    uint256 public _tokenIdCounter;\r\n\r\n    struct Tickets {\r\n        address owner;\r\n        uint256 amount;\r\n        string typeOfTicket;\r\n        uint256 time;\r\n        string imgUrl;\r\n    }\r\n    struct Transaction {\r\n        address to;\r\n        address from;\r\n        uint256 amount;\r\n        uint256 timestamp;\r\n        string ticketType;\r\n    }\r\n    // Mappings\r\n    mapping(uint256 => Tickets) public tickets; // Maps tokenId to ticket details\r\n    mapping(uint256 => Transaction) public transactions;\r\n\r\n    // Define global variables\r\n    uint256 public standardTicketPrice = 0;\r\n    uint256 public premiumTicketPrice = 0;\r\n    uint256 standardTicketCount;\r\n    uint256 premiumTicketCount;\r\n    uint256 public numberOfTransactions = 0;\r\n    address public concertManager;\r\n    \r\n     modifier onlyManager() {\r\n        require(msg.sender == concertManager, \"Only the concert manager can perform this action.\");\r\n        _;\r\n    }\r\n    // Events\r\n    event TicketMinted(address owner, uint256 tokenId,string typeOfTicket);\r\n    event Payment(address ownerAddress, uint256 amount);\r\n\r\n    // Constructor\r\n    constructor() ERC721(\"NFTTicket\", \"TICKET\") {\r\n        concertManager = msg.sender;\r\n        _tokenIdCounter=0;\r\n    }\r\n     \r\n    function setTicketCount(uint256 _standardTicketCount, uint256 _premiumTicketCount) public onlyManager {\r\n        standardTicketCount = _standardTicketCount;\r\n        premiumTicketCount = _premiumTicketCount;\r\n    }\r\n      function setTicketPrice(uint256 _standardTicketPrice, uint256 _premiumTicketPrice) public onlyManager {\r\n        standardTicketPrice = _standardTicketPrice;\r\n        premiumTicketPrice = _premiumTicketPrice;\r\n    }\r\n\r\n    // Function to mint a new ticket NFT\r\n    function addTicketOwner(\r\n        address _owner,\r\n        uint256 _amount,\r\n        string memory _typeOfTicket,\r\n        string memory _imgUrl\r\n    ) public payable returns (uint256) {\r\n        require(msg.value == _amount, \"Incorrect Ether amount sent.\");\r\n        address newOwner = msg.sender;\r\n        // Transfer payment to concert manager\r\n        (bool success, ) = concertManager.call{value: _amount}(\"\");\r\n        require(success, \"Transfer failed.\");\r\n        // Mint NFT Ticket\r\n        uint256 newTokenId = _tokenIdCounter;\r\n        _tokenIdCounter++;\r\n        _safeMint(_owner, newTokenId);\r\n        Transaction storage newTransaction = transactions[newTokenId];\r\n        newTransaction.to = concertManager;\r\n        newTransaction.from = newOwner;\r\n        newTransaction.amount = _amount;\r\n        newTransaction.timestamp = block.timestamp;\r\n        newTransaction.ticketType = _typeOfTicket;\r\n        numberOfTransactions++;\r\n\r\n        emit Payment(_owner, _amount);\r\n\r\n        // Store ticket details\r\n        tickets[newTokenId] = Tickets({\r\n            owner:_owner,\r\n            amount: _amount,\r\n            typeOfTicket: _typeOfTicket,\r\n            time: block.timestamp,\r\n            imgUrl: _imgUrl\r\n        });\r\n          // Set token URI for the image URL\r\n        _setTokenURI(newTokenId, _imgUrl);\r\n\r\n\r\n        emit TicketMinted(_owner, newTokenId,_typeOfTicket);\r\n\r\n        return newTokenId;\r\n    }\r\n\r\n    function getAllTransactions() public view returns (Transaction[] memory) {\r\n        Transaction[] memory allTransactions = new Transaction[](\r\n            numberOfTransactions\r\n        );\r\n\r\n        for (uint256 i = 0; i < numberOfTransactions; i++) {\r\n            Transaction storage item = transactions[i];\r\n\r\n            allTransactions[i] = item;\r\n        }\r\n\r\n        return allTransactions;\r\n    }\r\n    // Function to retrieve ticket info for a given tokenId\r\n    function getTicketInfo(uint256 tokenId) public view returns (Tickets memory) {\r\n        return tickets[tokenId];\r\n    }\r\n}\r\n",
  "sourcePath": "D:\\Blockchain\\Nft-ticketing\\Backend\\contracts\\TicketManagement.sol",
  "compiler": {
    "name": "solc",
    "version": "0.8.9+commit.e5eed63a.Emscripten.clang"
  },
  "schemaVersion": "3.4.16",
  "updatedAt": "2024-11-23T06:12:35.430Z",
  "networkType": "ethereum",
  "devdoc": {
    "kind": "dev",
    "methods": {
      "approve(address,uint256)": {
        "details": "See {IERC721-approve}."
      },
      "balanceOf(address)": {
        "details": "See {IERC721-balanceOf}."
      },
      "getApproved(uint256)": {
        "details": "See {IERC721-getApproved}."
      },
      "isApprovedForAll(address,address)": {
        "details": "See {IERC721-isApprovedForAll}."
      },
      "name()": {
        "details": "See {IERC721Metadata-name}."
      },
      "ownerOf(uint256)": {
        "details": "See {IERC721-ownerOf}."
      },
      "safeTransferFrom(address,address,uint256)": {
        "details": "See {IERC721-safeTransferFrom}."
      },
      "safeTransferFrom(address,address,uint256,bytes)": {
        "details": "See {IERC721-safeTransferFrom}."
      },
      "setApprovalForAll(address,bool)": {
        "details": "See {IERC721-setApprovalForAll}."
      },
      "supportsInterface(bytes4)": {
        "details": "See {IERC165-supportsInterface}."
      },
      "symbol()": {
        "details": "See {IERC721Metadata-symbol}."
      },
      "tokenURI(uint256)": {
        "details": "See {IERC721Metadata-tokenURI}."
      },
      "transferFrom(address,address,uint256)": {
        "details": "See {IERC721-transferFrom}."
      }
    },
    "version": 1
  },
  "userdoc": {
    "kind": "user",
    "methods": {},
    "version": 1
  }
}